{
  "contractName": "CropApplication",
  "abi": [
    {
      "anonymous": false,
      "inputs": [
        {
          "indexed": false,
          "internalType": "bytes32",
          "name": "id",
          "type": "bytes32"
        },
        {
          "indexed": true,
          "internalType": "address",
          "name": "ethAddress",
          "type": "address"
        },
        {
          "indexed": false,
          "internalType": "string",
          "name": "status",
          "type": "string"
        }
      ],
      "name": "ApplicationMovedToHarvestStage",
      "type": "event"
    },
    {
      "anonymous": false,
      "inputs": [
        {
          "indexed": false,
          "internalType": "bytes32",
          "name": "id",
          "type": "bytes32"
        },
        {
          "indexed": true,
          "internalType": "address",
          "name": "ethAddress",
          "type": "address"
        },
        {
          "indexed": false,
          "internalType": "string",
          "name": "status",
          "type": "string"
        }
      ],
      "name": "ApplicationMovedToMidAssessment",
      "type": "event"
    },
    {
      "anonymous": false,
      "inputs": [
        {
          "indexed": false,
          "internalType": "bytes32",
          "name": "id",
          "type": "bytes32"
        },
        {
          "indexed": true,
          "internalType": "address",
          "name": "ethAddress",
          "type": "address"
        },
        {
          "indexed": false,
          "internalType": "string",
          "name": "status",
          "type": "string"
        }
      ],
      "name": "ApplicationStatusUpdated",
      "type": "event"
    },
    {
      "anonymous": false,
      "inputs": [
        {
          "indexed": false,
          "internalType": "bytes32",
          "name": "id",
          "type": "bytes32"
        },
        {
          "indexed": true,
          "internalType": "address",
          "name": "ethAddress",
          "type": "address"
        },
        {
          "indexed": false,
          "internalType": "string",
          "name": "username",
          "type": "string"
        },
        {
          "indexed": false,
          "internalType": "string",
          "name": "status",
          "type": "string"
        }
      ],
      "name": "CropApplicationSubmitted",
      "type": "event"
    },
    {
      "anonymous": false,
      "inputs": [
        {
          "indexed": false,
          "internalType": "bytes32",
          "name": "id",
          "type": "bytes32"
        },
        {
          "indexed": true,
          "internalType": "address",
          "name": "ethAddress",
          "type": "address"
        },
        {
          "indexed": false,
          "internalType": "string",
          "name": "grade",
          "type": "string"
        },
        {
          "indexed": false,
          "internalType": "uint256",
          "name": "timestamp",
          "type": "uint256"
        }
      ],
      "name": "CropGraded",
      "type": "event"
    },
    {
      "anonymous": false,
      "inputs": [
        {
          "indexed": false,
          "internalType": "bytes32",
          "name": "id",
          "type": "bytes32"
        },
        {
          "indexed": true,
          "internalType": "address",
          "name": "ethAddress",
          "type": "address"
        },
        {
          "indexed": false,
          "internalType": "uint256",
          "name": "harvestDate",
          "type": "uint256"
        }
      ],
      "name": "HarvestDateBooked",
      "type": "event"
    },
    {
      "anonymous": false,
      "inputs": [
        {
          "indexed": false,
          "internalType": "bytes32",
          "name": "id",
          "type": "bytes32"
        },
        {
          "indexed": true,
          "internalType": "address",
          "name": "ethAddress",
          "type": "address"
        },
        {
          "indexed": false,
          "internalType": "uint256",
          "name": "assessmentDate",
          "type": "uint256"
        }
      ],
      "name": "MidCropAssessmentBooked",
      "type": "event"
    },
    {
      "anonymous": false,
      "inputs": [
        {
          "indexed": false,
          "internalType": "bytes32",
          "name": "id",
          "type": "bytes32"
        },
        {
          "indexed": true,
          "internalType": "address",
          "name": "ethAddress",
          "type": "address"
        },
        {
          "indexed": false,
          "internalType": "uint256",
          "name": "rate",
          "type": "uint256"
        },
        {
          "indexed": false,
          "internalType": "uint256",
          "name": "quantity",
          "type": "uint256"
        },
        {
          "indexed": false,
          "internalType": "uint256",
          "name": "timestamp",
          "type": "uint256"
        }
      ],
      "name": "PerKgRateAssigned",
      "type": "event"
    },
    {
      "inputs": [
        {
          "internalType": "uint256",
          "name": "",
          "type": "uint256"
        }
      ],
      "name": "applicationIds",
      "outputs": [
        {
          "internalType": "bytes32",
          "name": "",
          "type": "bytes32"
        }
      ],
      "stateMutability": "view",
      "type": "function",
      "constant": true
    },
    {
      "inputs": [
        {
          "internalType": "bytes32",
          "name": "",
          "type": "bytes32"
        }
      ],
      "name": "cropApplications",
      "outputs": [
        {
          "internalType": "bytes32",
          "name": "id",
          "type": "bytes32"
        },
        {
          "internalType": "address",
          "name": "ethAddress",
          "type": "address"
        },
        {
          "internalType": "string",
          "name": "status",
          "type": "string"
        },
        {
          "internalType": "uint256",
          "name": "midCropAssessmentDate",
          "type": "uint256"
        },
        {
          "internalType": "uint256",
          "name": "harvestDate",
          "type": "uint256"
        },
        {
          "internalType": "string",
          "name": "cropGrade",
          "type": "string"
        },
        {
          "internalType": "uint256",
          "name": "perKgRate",
          "type": "uint256"
        },
        {
          "internalType": "bool",
          "name": "graded",
          "type": "bool"
        },
        {
          "internalType": "bool",
          "name": "rateAssigned",
          "type": "bool"
        },
        {
          "internalType": "uint256",
          "name": "gradingTimestamp",
          "type": "uint256"
        },
        {
          "internalType": "uint256",
          "name": "rateTimestamp",
          "type": "uint256"
        },
        {
          "internalType": "uint256",
          "name": "quantity",
          "type": "uint256"
        }
      ],
      "stateMutability": "view",
      "type": "function",
      "constant": true
    },
    {
      "inputs": [
        {
          "internalType": "address",
          "name": "",
          "type": "address"
        }
      ],
      "name": "ethToApplicationId",
      "outputs": [
        {
          "internalType": "bytes32",
          "name": "",
          "type": "bytes32"
        }
      ],
      "stateMutability": "view",
      "type": "function",
      "constant": true
    },
    {
      "inputs": [
        {
          "internalType": "string",
          "name": "cropName",
          "type": "string"
        },
        {
          "internalType": "string",
          "name": "cropType",
          "type": "string"
        },
        {
          "internalType": "uint256",
          "name": "sowDate",
          "type": "uint256"
        },
        {
          "internalType": "uint256",
          "name": "harvestDate",
          "type": "uint256"
        },
        {
          "internalType": "string",
          "name": "district",
          "type": "string"
        },
        {
          "internalType": "string",
          "name": "username",
          "type": "string"
        },
        {
          "internalType": "string",
          "name": "userAddress",
          "type": "string"
        },
        {
          "internalType": "string",
          "name": "contactNumber",
          "type": "string"
        },
        {
          "internalType": "string",
          "name": "landOwnerName",
          "type": "string"
        },
        {
          "internalType": "string",
          "name": "landSurveyNumber",
          "type": "string"
        }
      ],
      "name": "submitApplication",
      "outputs": [],
      "stateMutability": "nonpayable",
      "type": "function"
    },
    {
      "inputs": [],
      "name": "getLastApplicationId",
      "outputs": [
        {
          "internalType": "bytes32",
          "name": "",
          "type": "bytes32"
        }
      ],
      "stateMutability": "view",
      "type": "function",
      "constant": true
    },
    {
      "inputs": [
        {
          "internalType": "bytes32",
          "name": "applicationId",
          "type": "bytes32"
        },
        {
          "internalType": "string",
          "name": "_status",
          "type": "string"
        }
      ],
      "name": "updateApplicationStatus",
      "outputs": [],
      "stateMutability": "nonpayable",
      "type": "function"
    },
    {
      "inputs": [
        {
          "internalType": "address",
          "name": "userAddress",
          "type": "address"
        }
      ],
      "name": "applicationExistsByAddress",
      "outputs": [
        {
          "internalType": "bool",
          "name": "",
          "type": "bool"
        }
      ],
      "stateMutability": "view",
      "type": "function",
      "constant": true
    },
    {
      "inputs": [
        {
          "internalType": "address",
          "name": "userAddress",
          "type": "address"
        }
      ],
      "name": "acceptApplicationByAddress",
      "outputs": [],
      "stateMutability": "nonpayable",
      "type": "function"
    },
    {
      "inputs": [
        {
          "internalType": "address",
          "name": "userAddress",
          "type": "address"
        },
        {
          "internalType": "string",
          "name": "_status",
          "type": "string"
        }
      ],
      "name": "updateApplicationStatusByAddress",
      "outputs": [],
      "stateMutability": "nonpayable",
      "type": "function"
    },
    {
      "inputs": [
        {
          "internalType": "address",
          "name": "farmer",
          "type": "address"
        },
        {
          "internalType": "uint256",
          "name": "assessmentDate",
          "type": "uint256"
        }
      ],
      "name": "bookMidCropAssessmentByAddress",
      "outputs": [],
      "stateMutability": "nonpayable",
      "type": "function"
    },
    {
      "inputs": [
        {
          "internalType": "address",
          "name": "farmer",
          "type": "address"
        },
        {
          "internalType": "uint256",
          "name": "_harvestDate",
          "type": "uint256"
        }
      ],
      "name": "bookHarvestDateByAddress",
      "outputs": [],
      "stateMutability": "nonpayable",
      "type": "function"
    },
    {
      "inputs": [
        {
          "internalType": "bytes32",
          "name": "applicationId",
          "type": "bytes32"
        },
        {
          "internalType": "string",
          "name": "grade",
          "type": "string"
        }
      ],
      "name": "gradeCrop",
      "outputs": [],
      "stateMutability": "nonpayable",
      "type": "function"
    },
    {
      "inputs": [
        {
          "internalType": "bytes32",
          "name": "applicationId",
          "type": "bytes32"
        },
        {
          "internalType": "uint256",
          "name": "rate",
          "type": "uint256"
        },
        {
          "internalType": "uint256",
          "name": "quantity",
          "type": "uint256"
        }
      ],
      "name": "assignPerKgRate",
      "outputs": [],
      "stateMutability": "nonpayable",
      "type": "function"
    },
    {
      "inputs": [
        {
          "internalType": "address",
          "name": "farmer",
          "type": "address"
        },
        {
          "internalType": "uint256",
          "name": "amount",
          "type": "uint256"
        }
      ],
      "name": "reduceQuantityByAddress",
      "outputs": [],
      "stateMutability": "nonpayable",
      "type": "function"
    }
  ],
  "bytecode": "0x608060405234801561001057600080fd5b5061271b806100206000396000f3fe608060405234801561001057600080fd5b50600436106100ea5760003560e01c80638e7735011161008c578063bc08201d11610066578063bc08201d14610264578063c0d5950114610280578063ccb832a71461029c578063f6039293146102b8576100ea565b80638e773501146101c95780639777d8d514610204578063b30c62e114610234576100ea565b806343bfd00a116100c857806343bfd00a146101595780636208726014610175578063620963ab146101915780637eb9cf1f146101ad576100ea565b8063018937e4146100ef5780632296c1b01461010d578063230009e01461013d575b600080fd5b6100f76102d4565b604051610104919061204e565b60405180910390f35b6101276004803603810190610122919061173c565b610378565b6040516101349190612033565b60405180910390f35b610157600480360381019061015291906117b9565b61042b565b005b610173600480360381019061016e91906117b9565b610533565b005b61018f600480360381019061018a9190611765565b610679565b005b6101ab60048036038101906101a6919061181e565b610788565b005b6101c760048036038101906101c291906118c1565b610aa6565b005b6101e360048036038101906101de91906117f5565b610e00565b6040516101fb9c9b9a99989796959493929190612069565b60405180910390f35b61021e6004803603810190610219919061173c565b610faa565b60405161022b919061204e565b60405180910390f35b61024e60048036038101906102499190611a5c565b610fc2565b60405161025b919061204e565b60405180910390f35b61027e6004803603810190610279919061181e565b610fe6565b005b61029a60048036038101906102959190611872565b611133565b005b6102b660048036038101906102b1919061173c565b611347565b005b6102d260048036038101906102cd91906117b9565b6114ac565b005b6000806002805490501161031d576040517f08c379a0000000000000000000000000000000000000000000000000000000008152600401610314906122be565b60405180910390fd5b6002600160028054905061033191906124a6565b81548110610368577f4e487b7100000000000000000000000000000000000000000000000000000000600052603260045260246000fd5b9060005260206000200154905090565b600080600160008473ffffffffffffffffffffffffffffffffffffffff1673ffffffffffffffffffffffffffffffffffffffff168152602001908152602001600020549050600073ffffffffffffffffffffffffffffffffffffffff1660008083815260200190815260200160002060010160009054906101000a900473ffffffffffffffffffffffffffffffffffffffff1673ffffffffffffffffffffffffffffffffffffffff161415915050919050565b6000600160008473ffffffffffffffffffffffffffffffffffffffff1673ffffffffffffffffffffffffffffffffffffffff1681526020019081526020016000205490506000801b8114156104b5576040517f08c379a00000000000000000000000000000000000000000000000000000000081526004016104ac9061229e565b60405180910390fd5b600080600083815260200190815260200160002090508281600a01541015610512576040517f08c379a0000000000000000000000000000000000000000000000000000000008152600401610509906123de565b60405180910390fd5b8281600a01600082825461052691906124a6565b9250508190555050505050565b6000600160008473ffffffffffffffffffffffffffffffffffffffff1673ffffffffffffffffffffffffffffffffffffffff1681526020019081526020016000205490506000801b8114156105bd576040517f08c379a00000000000000000000000000000000000000000000000000000000081526004016105b49061233e565b60405180910390fd5b60008060008381526020019081526020016000209050600081600301541461061a576040517f08c379a00000000000000000000000000000000000000000000000000000000081526004016106119061235e565b60405180910390fd5b8281600301819055508373ffffffffffffffffffffffffffffffffffffffff167f7b4cfc6fe4131a9eb95fa0158582439d3546237c1ae1e307290ac1daa0ef1443838560405161066b929190612210565b60405180910390a250505050565b6000600160008473ffffffffffffffffffffffffffffffffffffffff1673ffffffffffffffffffffffffffffffffffffffff1681526020019081526020016000205490506000801b811415610703576040517f08c379a00000000000000000000000000000000000000000000000000000000081526004016106fa906123fe565b60405180910390fd5b60008060008381526020019081526020016000209050828160020190805190602001906107319291906115f2565b508373ffffffffffffffffffffffffffffffffffffffff167fcb88ede50bf24f7082115041bbc26e44e2422b223b043bb655dd602b0b7fec09838560405161077a929190612131565b60405180910390a250505050565b600073ffffffffffffffffffffffffffffffffffffffff1660008084815260200190815260200160002060010160009054906101000a900473ffffffffffffffffffffffffffffffffffffffff1673ffffffffffffffffffffffffffffffffffffffff16141561082d576040517f08c379a00000000000000000000000000000000000000000000000000000000081526004016108249061233e565b60405180910390fd5b600080600084815260200190815260200160002090508060070160009054906101000a900460ff1615610895576040517f08c379a000000000000000000000000000000000000000000000000000000000815260040161088c906122de565b60405180910390fd5b6040518060400160405280600181526020017f4100000000000000000000000000000000000000000000000000000000000000815250805190602001208280519060200120148061092857506040518060400160405280600181526020017f4200000000000000000000000000000000000000000000000000000000000000815250805190602001208280519060200120145b8061097557506040518060400160405280600181526020017f4300000000000000000000000000000000000000000000000000000000000000815250805190602001208280519060200120145b6109b4576040517f08c379a00000000000000000000000000000000000000000000000000000000081526004016109ab906123be565b60405180910390fd5b818160050190805190602001906109cc9291906115f2565b5060018160070160006101000a81548160ff02191690831515021790555042816008018190555081604051602001610a049190612011565b604051602081830303815290604052816002019080519060200190610a2a9291906115f2565b508060010160009054906101000a900473ffffffffffffffffffffffffffffffffffffffff1673ffffffffffffffffffffffffffffffffffffffff167fd83e3ee6f1a81564547f0fcafd79e22441c0714ad5c9881ed04737c8d373873a848442604051610a99939291906121a4565b60405180910390a2505050565b600033428c89604051602001610abf9493929190611fcb565b604051602081830303815290604052805190602001209050600073ffffffffffffffffffffffffffffffffffffffff1660008083815260200190815260200160002060010160009054906101000a900473ffffffffffffffffffffffffffffffffffffffff1673ffffffffffffffffffffffffffffffffffffffff1614610b7b576040517f08c379a0000000000000000000000000000000000000000000000000000000008152600401610b72906122fe565b60405180910390fd5b6040518061018001604052808281526020013373ffffffffffffffffffffffffffffffffffffffff1681526020016040518060600160405280602781526020016126bf602791398152602001600081526020016000815260200160405180602001604052806000815250815260200160008152602001600015158152602001600015158152602001600081526020016000815260200160008152506000808381526020019081526020016000206000820151816000015560208201518160010160006101000a81548173ffffffffffffffffffffffffffffffffffffffff021916908373ffffffffffffffffffffffffffffffffffffffff1602179055506040820151816002019080519060200190610c959291906115f2565b50606082015181600301556080820151816004015560a0820151816005019080519060200190610cc69291906115f2565b5060c0820151816006015560e08201518160070160006101000a81548160ff0219169083151502179055506101008201518160070160016101000a81548160ff0219169083151502179055506101208201518160080155610140820151816009015561016082015181600a0155905050600281908060018154018082558091505060019003906000526020600020016000909190919091505580600160003373ffffffffffffffffffffffffffffffffffffffff1673ffffffffffffffffffffffffffffffffffffffff168152602001908152602001600020819055503373ffffffffffffffffffffffffffffffffffffffff167ff73afa1f3734d4da5049d4a7716894b30adff412dc21438b3032ab9e9110ae1d8288604051610deb929190612161565b60405180910390a25050505050505050505050565b60006020528060005260406000206000915090508060000154908060010160009054906101000a900473ffffffffffffffffffffffffffffffffffffffff1690806002018054610e4f9061256e565b80601f0160208091040260200160405190810160405280929190818152602001828054610e7b9061256e565b8015610ec85780601f10610e9d57610100808354040283529160200191610ec8565b820191906000526020600020905b815481529060010190602001808311610eab57829003601f168201915b505050505090806003015490806004015490806005018054610ee99061256e565b80601f0160208091040260200160405190810160405280929190818152602001828054610f159061256e565b8015610f625780601f10610f3757610100808354040283529160200191610f62565b820191906000526020600020905b815481529060010190602001808311610f4557829003601f168201915b5050505050908060060154908060070160009054906101000a900460ff16908060070160019054906101000a900460ff169080600801549080600901549080600a015490508c565b60016020528060005260406000206000915090505481565b60028181548110610fd257600080fd5b906000526020600020016000915090505481565b600073ffffffffffffffffffffffffffffffffffffffff1660008084815260200190815260200160002060010160009054906101000a900473ffffffffffffffffffffffffffffffffffffffff1673ffffffffffffffffffffffffffffffffffffffff16141561108b576040517f08c379a00000000000000000000000000000000000000000000000000000000081526004016110829061233e565b60405180910390fd5b60008060008481526020019081526020016000209050818160020190805190602001906110b99291906115f2565b508060010160009054906101000a900473ffffffffffffffffffffffffffffffffffffffff1673ffffffffffffffffffffffffffffffffffffffff167fcb88ede50bf24f7082115041bbc26e44e2422b223b043bb655dd602b0b7fec098484604051611126929190612131565b60405180910390a2505050565b600073ffffffffffffffffffffffffffffffffffffffff1660008085815260200190815260200160002060010160009054906101000a900473ffffffffffffffffffffffffffffffffffffffff1673ffffffffffffffffffffffffffffffffffffffff1614156111d8576040517f08c379a00000000000000000000000000000000000000000000000000000000081526004016111cf9061233e565b60405180910390fd5b600080600085815260200190815260200160002090508060070160009054906101000a900460ff1661123f576040517f08c379a00000000000000000000000000000000000000000000000000000000081526004016112369061239e565b60405180910390fd5b8060070160019054906101000a900460ff1615611291576040517f08c379a00000000000000000000000000000000000000000000000000000000081526004016112889061227e565b60405180910390fd5b82816006018190555060018160070160016101000a81548160ff0219169083151502179055504281600901819055508181600a01819055508060010160009054906101000a900473ffffffffffffffffffffffffffffffffffffffff1673ffffffffffffffffffffffffffffffffffffffff167feadcc5bb6b8fa8069d39cba88e9a23364de74fb246db3a8491b4fcb223169e76858585426040516113399493929190612239565b60405180910390a250505050565b6000600160008373ffffffffffffffffffffffffffffffffffffffff1673ffffffffffffffffffffffffffffffffffffffff1681526020019081526020016000205490506000801b8114156113d1576040517f08c379a00000000000000000000000000000000000000000000000000000000081526004016113c89061231e565b60405180910390fd5b600080600083815260200190815260200160002090506040518060400160405280601d81526020017f44657461696c73205665726966696564205375636365737366756c6c790000008152508160020190805190602001906114349291906115f2565b508060010160009054906101000a900473ffffffffffffffffffffffffffffffffffffffff1673ffffffffffffffffffffffffffffffffffffffff167fcb88ede50bf24f7082115041bbc26e44e2422b223b043bb655dd602b0b7fec098360405161149f91906121e2565b60405180910390a2505050565b6000600160008473ffffffffffffffffffffffffffffffffffffffff1673ffffffffffffffffffffffffffffffffffffffff1681526020019081526020016000205490506000801b811415611536576040517f08c379a000000000000000000000000000000000000000000000000000000000815260040161152d9061233e565b60405180910390fd5b600080600083815260200190815260200160002090506000816004015414611593576040517f08c379a000000000000000000000000000000000000000000000000000000000815260040161158a9061237e565b60405180910390fd5b8281600401819055508373ffffffffffffffffffffffffffffffffffffffff167f2383fd28c24f66e829d869381577b2d8ffeb92c413c808f14cd1dcfa84ce908683856040516115e4929190612210565b60405180910390a250505050565b8280546115fe9061256e565b90600052602060002090601f0160209004810192826116205760008555611667565b82601f1061163957805160ff1916838001178555611667565b82800160010185558215611667579182015b8281111561166657825182559160200191906001019061164b565b5b5090506116749190611678565b5090565b5b80821115611691576000816000905550600101611679565b5090565b60006116a86116a38461244f565b61241e565b9050828152602081018484840111156116c057600080fd5b6116cb84828561252c565b509392505050565b6000813590506116e281612679565b92915050565b6000813590506116f781612690565b92915050565b600082601f83011261170e57600080fd5b813561171e848260208601611695565b91505092915050565b600081359050611736816126a7565b92915050565b60006020828403121561174e57600080fd5b600061175c848285016116d3565b91505092915050565b6000806040838503121561177857600080fd5b6000611786858286016116d3565b925050602083013567ffffffffffffffff8111156117a357600080fd5b6117af858286016116fd565b9150509250929050565b600080604083850312156117cc57600080fd5b60006117da858286016116d3565b92505060206117eb85828601611727565b9150509250929050565b60006020828403121561180757600080fd5b6000611815848285016116e8565b91505092915050565b6000806040838503121561183157600080fd5b600061183f858286016116e8565b925050602083013567ffffffffffffffff81111561185c57600080fd5b611868858286016116fd565b9150509250929050565b60008060006060848603121561188757600080fd5b6000611895868287016116e8565b93505060206118a686828701611727565b92505060406118b786828701611727565b9150509250925092565b6000806000806000806000806000806101408b8d0312156118e157600080fd5b60008b013567ffffffffffffffff8111156118fb57600080fd5b6119078d828e016116fd565b9a505060208b013567ffffffffffffffff81111561192457600080fd5b6119308d828e016116fd565b99505060406119418d828e01611727565b98505060606119528d828e01611727565b97505060808b013567ffffffffffffffff81111561196f57600080fd5b61197b8d828e016116fd565b96505060a08b013567ffffffffffffffff81111561199857600080fd5b6119a48d828e016116fd565b95505060c08b013567ffffffffffffffff8111156119c157600080fd5b6119cd8d828e016116fd565b94505060e08b013567ffffffffffffffff8111156119ea57600080fd5b6119f68d828e016116fd565b9350506101008b013567ffffffffffffffff811115611a1457600080fd5b611a208d828e016116fd565b9250506101208b013567ffffffffffffffff811115611a3e57600080fd5b611a4a8d828e016116fd565b9150509295989b9194979a5092959850565b600060208284031215611a6e57600080fd5b6000611a7c84828501611727565b91505092915050565b611a8e816124da565b82525050565b611aa5611aa0826124da565b6125a0565b82525050565b611ab4816124ec565b82525050565b611ac3816124f8565b82525050565b6000611ad48261247f565b611ade818561248a565b9350611aee81856020860161253b565b611af78161265b565b840191505092915050565b6000611b0d8261247f565b611b17818561249b565b9350611b2781856020860161253b565b80840191505092915050565b6000611b4060158361248a565b91507f5261746520616c72656164792061737369676e656400000000000000000000006000830152602082019050919050565b6000611b8060158361248a565b91507f4170706c69636174696f6e206e6f7420666f756e6400000000000000000000006000830152602082019050919050565b6000611bc060158361248a565b91507f4e6f206170706c69636174696f6e7320666f756e6400000000000000000000006000830152602082019050919050565b6000611c00603a8361249b565b91507f4d69642043726f70204173736573736d656e7420446f6e65205375636365737360008301527f66756c6c7920616e6420477261646520476976656e2069733a200000000000006020830152603a82019050919050565b6000611c6660138361248a565b91507f43726f7020616c726561647920677261646564000000000000000000000000006000830152602082019050919050565b6000611ca6601d8361248a565b91507f44657461696c73205665726966696564205375636365737366756c6c790000006000830152602082019050919050565b6000611ce6601d8361248a565b91507f4170706c69636174696f6e20494420616c7265616479206578697374730000006000830152602082019050919050565b6000611d2660148361248a565b91507f4e6f206170706c69636174696f6e20666f756e640000000000000000000000006000830152602082019050919050565b6000611d66601a8361248a565b91507f4170706c69636174696f6e20646f6573206e6f742065786973740000000000006000830152602082019050919050565b6000611da6601e8361248a565b91507f4173736573736d656e74206461746520616c726561647920626f6f6b656400006000830152602082019050919050565b6000611de6601b8361248a565b91507f48617276657374206461746520616c726561647920626f6f6b656400000000006000830152602082019050919050565b6000611e2660198361248a565b91507f43726f70206d75737420626520677261646564206669727374000000000000006000830152602082019050919050565b6000611e66600d8361248a565b91507f496e76616c6964206772616465000000000000000000000000000000000000006000830152602082019050919050565b6000611ea660278361248a565b91507f43726f70204170706c69636174696f6e205375626d697474656420737563636560008301527f737366756c6c79000000000000000000000000000000000000000000000000006020830152604082019050919050565b6000611f0c601d8361248a565b91507f4e6f7420656e6f756768207175616e7469747920617661696c61626c650000006000830152602082019050919050565b6000611f4c60258361248a565b91507f4e6f206170706c69636174696f6e20666f756e6420666f72207468697320616460008301527f64726573730000000000000000000000000000000000000000000000000000006020830152604082019050919050565b611fae81612522565b82525050565b611fc5611fc082612522565b6125c4565b82525050565b6000611fd78287611a94565b601482019150611fe78286611fb4565b602082019150611ff78285611b02565b91506120038284611b02565b915081905095945050505050565b600061201c82611bf3565b91506120288284611b02565b915081905092915050565b60006020820190506120486000830184611aab565b92915050565b60006020820190506120636000830184611aba565b92915050565b60006101808201905061207f600083018f611aba565b61208c602083018e611a85565b818103604083015261209e818d611ac9565b90506120ad606083018c611fa5565b6120ba608083018b611fa5565b81810360a08301526120cc818a611ac9565b90506120db60c0830189611fa5565b6120e860e0830188611aab565b6120f6610100830187611aab565b612104610120830186611fa5565b612112610140830185611fa5565b612120610160830184611fa5565b9d9c50505050505050505050505050565b60006040820190506121466000830185611aba565b81810360208301526121588184611ac9565b90509392505050565b60006060820190506121766000830185611aba565b81810360208301526121888184611ac9565b9050818103604083015261219b81611e99565b90509392505050565b60006060820190506121b96000830186611aba565b81810360208301526121cb8185611ac9565b90506121da6040830184611fa5565b949350505050565b60006040820190506121f76000830184611aba565b818103602083015261220881611c99565b905092915050565b60006040820190506122256000830185611aba565b6122326020830184611fa5565b9392505050565b600060808201905061224e6000830187611aba565b61225b6020830186611fa5565b6122686040830185611fa5565b6122756060830184611fa5565b95945050505050565b6000602082019050818103600083015261229781611b33565b9050919050565b600060208201905081810360008301526122b781611b73565b9050919050565b600060208201905081810360008301526122d781611bb3565b9050919050565b600060208201905081810360008301526122f781611c59565b9050919050565b6000602082019050818103600083015261231781611cd9565b9050919050565b6000602082019050818103600083015261233781611d19565b9050919050565b6000602082019050818103600083015261235781611d59565b9050919050565b6000602082019050818103600083015261237781611d99565b9050919050565b6000602082019050818103600083015261239781611dd9565b9050919050565b600060208201905081810360008301526123b781611e19565b9050919050565b600060208201905081810360008301526123d781611e59565b9050919050565b600060208201905081810360008301526123f781611eff565b9050919050565b6000602082019050818103600083015261241781611f3f565b9050919050565b6000604051905081810181811067ffffffffffffffff821117156124455761244461262c565b5b8060405250919050565b600067ffffffffffffffff82111561246a5761246961262c565b5b601f19601f8301169050602081019050919050565b600081519050919050565b600082825260208201905092915050565b600081905092915050565b60006124b182612522565b91506124bc83612522565b9250828210156124cf576124ce6125ce565b5b828203905092915050565b60006124e582612502565b9050919050565b60008115159050919050565b6000819050919050565b600073ffffffffffffffffffffffffffffffffffffffff82169050919050565b6000819050919050565b82818337600083830152505050565b60005b8381101561255957808201518184015260208101905061253e565b83811115612568576000848401525b50505050565b6000600282049050600182168061258657607f821691505b6020821081141561259a576125996125fd565b5b50919050565b60006125ab826125b2565b9050919050565b60006125bd8261266c565b9050919050565b6000819050919050565b7f4e487b7100000000000000000000000000000000000000000000000000000000600052601160045260246000fd5b7f4e487b7100000000000000000000000000000000000000000000000000000000600052602260045260246000fd5b7f4e487b7100000000000000000000000000000000000000000000000000000000600052604160045260246000fd5b6000601f19601f8301169050919050565b60008160601b9050919050565b612682816124da565b811461268d57600080fd5b50565b612699816124f8565b81146126a457600080fd5b50565b6126b081612522565b81146126bb57600080fd5b5056fe43726f70204170706c69636174696f6e205375626d6974746564207375636365737366756c6c79a2646970667358221220291ebf607dc1b0afc25605f8cb2cc2e005a5f44b6f9666f466fe1e58f9e79af664736f6c63430008000033",
  "immutableReferences": {},
  "source": "// SPDX-License-Identifier: MIT\r\npragma solidity ^0.8.0;\r\n\r\ncontract CropApplication {\r\n    struct Application {\r\n        bytes32 id;\r\n        address ethAddress;\r\n        string status;\r\n        uint midCropAssessmentDate;\r\n        uint harvestDate;\r\n        string cropGrade;\r\n        uint perKgRate;\r\n        bool graded;\r\n        bool rateAssigned;\r\n        uint gradingTimestamp;\r\n        uint rateTimestamp;\r\n        uint quantity; \r\n    }\r\n\r\n    mapping(bytes32 => Application) public cropApplications;\r\n    mapping(address => bytes32) public ethToApplicationId;\r\n    bytes32[] public applicationIds;\r\n\r\n    event CropApplicationSubmitted(bytes32 id, address indexed ethAddress, string username, string status);\r\n    event ApplicationStatusUpdated(bytes32 id, address indexed ethAddress, string status);\r\n    event MidCropAssessmentBooked(bytes32 id, address indexed ethAddress, uint assessmentDate);\r\n    event HarvestDateBooked(bytes32 id, address indexed ethAddress, uint harvestDate);\r\n    event CropGraded(bytes32 id, address indexed ethAddress, string grade, uint timestamp);\r\n    event PerKgRateAssigned(bytes32 id, address indexed ethAddress, uint rate,uint quantity, uint timestamp);\r\n    event ApplicationMovedToMidAssessment(bytes32 id, address indexed ethAddress, string status);\r\n    event ApplicationMovedToHarvestStage(bytes32 id, address indexed ethAddress, string status);\r\n\r\n    function submitApplication(\r\n        string memory cropName,\r\n        string memory cropType,\r\n        uint sowDate,\r\n        uint harvestDate,\r\n        string memory district,\r\n        string memory username,\r\n        string memory userAddress,\r\n        string memory contactNumber,\r\n        string memory landOwnerName,\r\n        string memory landSurveyNumber\r\n    ) public {\r\n        bytes32 applicationId = keccak256(\r\n            abi.encodePacked(msg.sender, block.timestamp, cropName, district)\r\n        );\r\n\r\n        require(cropApplications[applicationId].ethAddress == address(0), \"Application ID already exists\");\r\n\r\n        cropApplications[applicationId] = Application({\r\n            id: applicationId,\r\n            ethAddress: msg.sender,\r\n            status: \"Crop Application Submitted successfully\",\r\n            midCropAssessmentDate: 0,\r\n            harvestDate: 0,\r\n            cropGrade: \"\",\r\n            perKgRate: 0,\r\n            graded: false,\r\n            rateAssigned: false,\r\n            gradingTimestamp: 0,\r\n            rateTimestamp: 0,\r\n            quantity: 0\r\n        });\r\n\r\n        applicationIds.push(applicationId);\r\n        ethToApplicationId[msg.sender] = applicationId;\r\n\r\n        emit CropApplicationSubmitted(applicationId, msg.sender, username, \"Crop Application Submitted successfully\");\r\n    }\r\n\r\n    function getLastApplicationId() public view returns (bytes32) {\r\n        require(applicationIds.length > 0, \"No applications found\");\r\n        return applicationIds[applicationIds.length - 1];\r\n    }\r\n        //  New Function: Update Application Status Using Application ID\r\n    function updateApplicationStatus(bytes32 applicationId, string memory _status) public {\r\n        require(cropApplications[applicationId].ethAddress != address(0), \"Application does not exist\");\r\n\r\n        Application storage application = cropApplications[applicationId];\r\n        application.status = _status;\r\n\r\n        emit ApplicationStatusUpdated(applicationId, application.ethAddress, _status);\r\n    }\r\n\r\n\r\n    \r\n    function applicationExistsByAddress(address userAddress) public view returns (bool) {\r\n        bytes32 applicationId = ethToApplicationId[userAddress];\r\n        return cropApplications[applicationId].ethAddress != address(0);\r\n    }\r\n\r\n    function acceptApplicationByAddress(address userAddress) public {\r\n        bytes32 applicationId = ethToApplicationId[userAddress];\r\n        require(applicationId != bytes32(0), \"No application found\");\r\n\r\n        Application storage application = cropApplications[applicationId];\r\n        application.status = \"Details Verified Successfully\";\r\n\r\n        emit ApplicationStatusUpdated(applicationId, application.ethAddress, \"Details Verified Successfully\");\r\n    }\r\n\r\n    function updateApplicationStatusByAddress(address userAddress, string memory _status) public {\r\n        bytes32 applicationId = ethToApplicationId[userAddress];\r\n        require(applicationId != bytes32(0), \"No application found for this address\");\r\n\r\n        Application storage application = cropApplications[applicationId];\r\n        application.status = _status;\r\n\r\n        emit ApplicationStatusUpdated(applicationId, userAddress, _status);\r\n    }\r\n\r\n    // ** Book Mid-Crop Assessment using ETH Address**\r\n    function bookMidCropAssessmentByAddress(address farmer, uint assessmentDate) public {\r\n        bytes32 applicationId = ethToApplicationId[farmer];\r\n        require(applicationId != bytes32(0), \"Application does not exist\");\r\n\r\n        Application storage application = cropApplications[applicationId];\r\n\r\n        require(application.midCropAssessmentDate == 0, \"Assessment date already booked\");\r\n        \r\n\r\n        application.midCropAssessmentDate = assessmentDate;\r\n\r\n        emit MidCropAssessmentBooked(applicationId, farmer, assessmentDate);\r\n    }\r\n\r\n    // ** Book Harvest Date using ETH Address**\r\n    function bookHarvestDateByAddress(address farmer, uint _harvestDate) public {\r\n        bytes32 applicationId = ethToApplicationId[farmer];\r\n        require(applicationId != bytes32(0), \"Application does not exist\");\r\n\r\n        Application storage application = cropApplications[applicationId];\r\n\r\n        require(application.harvestDate == 0, \"Harvest date already booked\");\r\n\r\n        application.harvestDate = _harvestDate;\r\n\r\n        emit HarvestDateBooked(applicationId, farmer, _harvestDate);\r\n    }\r\n\r\n    function gradeCrop(bytes32 applicationId, string memory grade) public {\r\n        require(cropApplications[applicationId].ethAddress != address(0), \"Application does not exist\");\r\n        Application storage application = cropApplications[applicationId];\r\n\r\n        require(!application.graded, \"Crop already graded\");\r\n        require(keccak256(bytes(grade)) == keccak256(bytes(\"A\")) || \r\n                keccak256(bytes(grade)) == keccak256(bytes(\"B\")) || \r\n                keccak256(bytes(grade)) == keccak256(bytes(\"C\")), \"Invalid grade\");\r\n\r\n        application.cropGrade = grade;\r\n        application.graded = true;\r\n        application.gradingTimestamp = block.timestamp;\r\n        application.status = string(abi.encodePacked(\"Mid Crop Assessment Done Successfully and Grade Given is: \", grade));\r\n\r\n        emit CropGraded(applicationId, application.ethAddress, grade, block.timestamp);\r\n    }\r\n\r\n    function assignPerKgRate(bytes32 applicationId, uint rate,uint quantity) public {\r\n        require(cropApplications[applicationId].ethAddress != address(0), \"Application does not exist\");\r\n        Application storage application = cropApplications[applicationId];\r\n\r\n        require(application.graded, \"Crop must be graded first\");\r\n        require(!application.rateAssigned, \"Rate already assigned\");\r\n\r\n        application.perKgRate = rate;\r\n        application.rateAssigned = true;\r\n        application.rateTimestamp = block.timestamp;\r\n        application.quantity = quantity;\r\n\r\n        emit PerKgRateAssigned(applicationId, application.ethAddress, rate,quantity, block.timestamp);\r\n    }\r\n\r\n    function reduceQuantityByAddress(address farmer, uint amount) public {\r\n    bytes32 applicationId = ethToApplicationId[farmer];\r\n    require(applicationId != bytes32(0), \"Application not found\");\r\n\r\n    Application storage application = cropApplications[applicationId];\r\n    require(application.quantity >= amount, \"Not enough quantity available\");\r\n\r\n    application.quantity -= amount;\r\n}\r\n}\r\n\r\n",
  "sourcePath": "C:\\test main\\Crop recommendation system\\crop_app\\contracts\\CropApplication.sol",
  "compiler": {
    "name": "solc",
    "version": "0.8.0+commit.c7dfd78e.Emscripten.clang"
  },
  "schemaVersion": "3.4.16",
  "updatedAt": "2025-04-18T10:28:03.126Z",
  "networkType": "ethereum",
  "devdoc": {
    "kind": "dev",
    "methods": {},
    "version": 1
  },
  "userdoc": {
    "kind": "user",
    "methods": {},
    "version": 1
  }
}